{
  "_format": "hh-sol-artifact-1",
  "contractName": "MedHash",
  "sourceName": "contracts/MedHash.sol",
  "abi": [
    {
      "anonymous": false,
      "inputs": [
        {
          "indexed": true,
          "internalType": "bytes32",
          "name": "hash",
          "type": "bytes32"
        },
        {
          "indexed": false,
          "internalType": "string",
          "name": "pmid",
          "type": "string"
        },
        {
          "indexed": false,
          "internalType": "string",
          "name": "summaryType",
          "type": "string"
        },
        {
          "indexed": false,
          "internalType": "uint256",
          "name": "timestamp",
          "type": "uint256"
        }
      ],
      "name": "ProofStored",
      "type": "event"
    },
    {
      "inputs": [
        {
          "internalType": "string",
          "name": "_pmid",
          "type": "string"
        }
      ],
      "name": "getPaperProofs",
      "outputs": [
        {
          "internalType": "bytes32[]",
          "name": "",
          "type": "bytes32[]"
        }
      ],
      "stateMutability": "view",
      "type": "function"
    },
    {
      "inputs": [
        {
          "internalType": "string",
          "name": "",
          "type": "string"
        },
        {
          "internalType": "uint256",
          "name": "",
          "type": "uint256"
        }
      ],
      "name": "paperProofs",
      "outputs": [
        {
          "internalType": "bytes32",
          "name": "",
          "type": "bytes32"
        }
      ],
      "stateMutability": "view",
      "type": "function"
    },
    {
      "inputs": [
        {
          "internalType": "bytes32",
          "name": "",
          "type": "bytes32"
        }
      ],
      "name": "proofs",
      "outputs": [
        {
          "internalType": "bytes32",
          "name": "hash",
          "type": "bytes32"
        },
        {
          "internalType": "uint256",
          "name": "timestamp",
          "type": "uint256"
        },
        {
          "internalType": "string",
          "name": "pmid",
          "type": "string"
        },
        {
          "internalType": "string",
          "name": "summaryType",
          "type": "string"
        }
      ],
      "stateMutability": "view",
      "type": "function"
    },
    {
      "inputs": [
        {
          "internalType": "string",
          "name": "_pmid",
          "type": "string"
        },
        {
          "internalType": "string",
          "name": "_summaryType",
          "type": "string"
        },
        {
          "internalType": "string",
          "name": "_summaryHash",
          "type": "string"
        }
      ],
      "name": "storeProof",
      "outputs": [
        {
          "internalType": "bytes32",
          "name": "",
          "type": "bytes32"
        }
      ],
      "stateMutability": "nonpayable",
      "type": "function"
    },
    {
      "inputs": [
        {
          "internalType": "string",
          "name": "_pmid",
          "type": "string"
        },
        {
          "internalType": "string",
          "name": "_summaryType",
          "type": "string"
        },
        {
          "internalType": "string",
          "name": "_summaryHash",
          "type": "string"
        }
      ],
      "name": "verifyProof",
      "outputs": [
        {
          "internalType": "bool",
          "name": "exists",
          "type": "bool"
        },
        {
          "internalType": "uint256",
          "name": "timestamp",
          "type": "uint256"
        }
      ],
      "stateMutability": "view",
      "type": "function"
    }
  ],
  "bytecode": "0x608060405234801561001057600080fd5b50611034806100206000396000f3fe608060405234801561001057600080fd5b50600436106100575760003560e01c8063444d95b01461005c5780638ac301c31461008f57806398bb0563146100bf578063ec99f0f3146100f0578063f34daca914610120575b600080fd5b610076600480360381019061007191906106c7565b610150565b60405161008694939291906107ac565b60405180910390f35b6100a960048036038101906100a49190610934565b610290565b6040516100b691906109db565b60405180910390f35b6100d960048036038101906100d49190610934565b61041a565b6040516100e7929190610a11565b60405180910390f35b61010a60048036038101906101059190610a66565b6105c0565b60405161011791906109db565b60405180910390f35b61013a60048036038101906101359190610ac2565b610607565b6040516101479190610bc9565b60405180910390f35b600060205280600052604060002060009150905080600001549080600101549080600201805461017f90610c1a565b80601f01602080910402602001604051908101604052809291908181526020018280546101ab90610c1a565b80156101f85780601f106101cd576101008083540402835291602001916101f8565b820191906000526020600020905b8154815290600101906020018083116101db57829003601f168201915b50505050509080600301805461020d90610c1a565b80601f016020809104026020016040519081016040528092919081815260200182805461023990610c1a565b80156102865780601f1061025b57610100808354040283529160200191610286565b820191906000526020600020905b81548152906001019060200180831161026957829003601f168201915b5050505050905084565b6000808484846040516020016102a893929190610c87565b60405160208183030381529060405280519060200120905060008060008381526020019081526020016000206001015414610318576040517f08c379a000000000000000000000000000000000000000000000000000000000815260040161030f90610d04565b60405180910390fd5b604051806080016040528082815260200142815260200186815260200185815250600080838152602001908152602001600020600082015181600001556020820151816001015560408201518160020190816103749190610ed0565b50606082015181600301908161038a9190610ed0565b5090505060018560405161039e9190610fa2565b9081526020016040518091039020819080600181540180825580915050600190039060005260206000200160009091909190915055807f7bf64b53572b728f472f96d9998d82d9d10d04c6cb268413ce3c8f367a6514da86864260405161040793929190610fb9565b60405180910390a2809150509392505050565b600080600085858560405160200161043493929190610c87565b6040516020818303038152906040528051906020012090506000806000838152602001908152602001600020604051806080016040529081600082015481526020016001820154815260200160028201805461048f90610c1a565b80601f01602080910402602001604051908101604052809291908181526020018280546104bb90610c1a565b80156105085780601f106104dd57610100808354040283529160200191610508565b820191906000526020600020905b8154815290600101906020018083116104eb57829003601f168201915b5050505050815260200160038201805461052190610c1a565b80601f016020809104026020016040519081016040528092919081815260200182805461054d90610c1a565b801561059a5780601f1061056f5761010080835404028352916020019161059a565b820191906000526020600020905b81548152906001019060200180831161057d57829003601f168201915b505050505081525050905060008160200151118160200151935093505050935093915050565b60018280516020810182018051848252602083016020850120818352809550505050505081815481106105f257600080fd5b90600052602060002001600091509150505481565b60606001826040516106199190610fa2565b908152602001604051809103902080548060200260200160405190810160405280929190818152602001828054801561067157602002820191906000526020600020905b81548152602001906001019080831161065d575b50505050509050919050565b6000604051905090565b600080fd5b600080fd5b6000819050919050565b6106a481610691565b81146106af57600080fd5b50565b6000813590506106c18161069b565b92915050565b6000602082840312156106dd576106dc610687565b5b60006106eb848285016106b2565b91505092915050565b6106fd81610691565b82525050565b6000819050919050565b61071681610703565b82525050565b600081519050919050565b600082825260208201905092915050565b60005b8381101561075657808201518184015260208101905061073b565b60008484015250505050565b6000601f19601f8301169050919050565b600061077e8261071c565b6107888185610727565b9350610798818560208601610738565b6107a181610762565b840191505092915050565b60006080820190506107c160008301876106f4565b6107ce602083018661070d565b81810360408301526107e08185610773565b905081810360608301526107f48184610773565b905095945050505050565b600080fd5b600080fd5b7f4e487b7100000000000000000000000000000000000000000000000000000000600052604160045260246000fd5b61084182610762565b810181811067ffffffffffffffff821117156108605761085f610809565b5b80604052505050565b600061087361067d565b905061087f8282610838565b919050565b600067ffffffffffffffff82111561089f5761089e610809565b5b6108a882610762565b9050602081019050919050565b82818337600083830152505050565b60006108d76108d284610884565b610869565b9050828152602081018484840111156108f3576108f2610804565b5b6108fe8482856108b5565b509392505050565b600082601f83011261091b5761091a6107ff565b5b813561092b8482602086016108c4565b91505092915050565b60008060006060848603121561094d5761094c610687565b5b600084013567ffffffffffffffff81111561096b5761096a61068c565b5b61097786828701610906565b935050602084013567ffffffffffffffff8111156109985761099761068c565b5b6109a486828701610906565b925050604084013567ffffffffffffffff8111156109c5576109c461068c565b5b6109d186828701610906565b9150509250925092565b60006020820190506109f060008301846106f4565b92915050565b60008115159050919050565b610a0b816109f6565b82525050565b6000604082019050610a266000830185610a02565b610a33602083018461070d565b9392505050565b610a4381610703565b8114610a4e57600080fd5b50565b600081359050610a6081610a3a565b92915050565b60008060408385031215610a7d57610a7c610687565b5b600083013567ffffffffffffffff811115610a9b57610a9a61068c565b5b610aa785828601610906565b9250506020610ab885828601610a51565b9150509250929050565b600060208284031215610ad857610ad7610687565b5b600082013567ffffffffffffffff811115610af657610af561068c565b5b610b0284828501610906565b91505092915050565b600081519050919050565b600082825260208201905092915050565b6000819050602082019050919050565b610b4081610691565b82525050565b6000610b528383610b37565b60208301905092915050565b6000602082019050919050565b6000610b7682610b0b565b610b808185610b16565b9350610b8b83610b27565b8060005b83811015610bbc578151610ba38882610b46565b9750610bae83610b5e565b925050600181019050610b8f565b5085935050505092915050565b60006020820190508181036000830152610be38184610b6b565b905092915050565b7f4e487b7100000000000000000000000000000000000000000000000000000000600052602260045260246000fd5b60006002820490506001821680610c3257607f821691505b602082108103610c4557610c44610beb565b5b50919050565b600081905092915050565b6000610c618261071c565b610c6b8185610c4b565b9350610c7b818560208601610738565b80840191505092915050565b6000610c938286610c56565b9150610c9f8285610c56565b9150610cab8284610c56565b9150819050949350505050565b7f50726f6f6620616c726561647920657869737473000000000000000000000000600082015250565b6000610cee601483610727565b9150610cf982610cb8565b602082019050919050565b60006020820190508181036000830152610d1d81610ce1565b9050919050565b60008190508160005260206000209050919050565b60006020601f8301049050919050565b600082821b905092915050565b600060088302610d867fffffffffffffffffffffffffffffffffffffffffffffffffffffffffffffffff82610d49565b610d908683610d49565b95508019841693508086168417925050509392505050565b6000819050919050565b6000610dcd610dc8610dc384610703565b610da8565b610703565b9050919050565b6000819050919050565b610de783610db2565b610dfb610df382610dd4565b848454610d56565b825550505050565b600090565b610e10610e03565b610e1b818484610dde565b505050565b5b81811015610e3f57610e34600082610e08565b600181019050610e21565b5050565b601f821115610e8457610e5581610d24565b610e5e84610d39565b81016020851015610e6d578190505b610e81610e7985610d39565b830182610e20565b50505b505050565b600082821c905092915050565b6000610ea760001984600802610e89565b1980831691505092915050565b6000610ec08383610e96565b9150826002028217905092915050565b610ed98261071c565b67ffffffffffffffff811115610ef257610ef1610809565b5b610efc8254610c1a565b610f07828285610e43565b600060209050601f831160018114610f3a5760008415610f28578287015190505b610f328582610eb4565b865550610f9a565b601f198416610f4886610d24565b60005b82811015610f7057848901518255600182019150602085019450602081019050610f4b565b86831015610f8d5784890151610f89601f891682610e96565b8355505b6001600288020188555050505b505050505050565b6000610fae8284610c56565b915081905092915050565b60006060820190508181036000830152610fd38186610773565b90508181036020830152610fe78185610773565b9050610ff6604083018461070d565b94935050505056fea2646970667358221220246ed258df3c519df43e5d990ae5a19021cd650b96661f16bac1361c7a0c509864736f6c63430008180033",
  "linkReferences": {},
  "deployedLinkReferences": {}
}